:020000040000FA
:100000008316FF2390000729D20003088312D30030
:100010003F18EC28BF18D028BF19CA28851EEC2825
:10002000BF15CC01CA2882070034003400340034E4
:100030000E34043400340034003458342234903404
:1000400003341E341B341D340034063421340A3486
:10005000053426342334243411340D341A34DF3477
:10006000A03416341C34153432342C342A3434344D
:100070002E3425342B342D340034763400341434AB
:1000800000340C34003498340034123459340034C1
:100090000034003479347B34293466345A340734DC
:1000A000BA3478345D340034003400340034003421
:1000B000003400349D340034EB340034EC34F53437
:1000C000FD340034B8340034F23400340B34F134ED
:1000D0008334C834FA340034F43400340034DA346D
:1000E000013400340034003400340934493400341D
:1000F000D03446344B3444344A34543400345234CB
:100100004E3445344C344D3400345B344134003487
:1001100055343E3442344334313435343A34333454
:1001200036343D343B343C34820715348207B834CE
:100130000034DF34003400340034003495340034AB
:100140000034003400340034003400340034DA3435
:10015000003401340034BA34003483340034F434CD
:10016000FD34F534DA34EB34FA34F234003400344C
:10017000BB3400340034B434CD34820712345934E3
:1001800014341134CC0A05304C0203193F15EC2805
:10019000BF01EC28851AC2283F1DC828BF14810161
:1001A0003E303E020319EC280130851E00303E0629
:1001B00001390319E9283E08203C031DE3280E30CD
:1001C0000102031CEC283E08840001088000BE0ADE
:1001D000EC280B1DEE283F1481010B11CD0A0319E9
:1001E000CE0AC0308E008F030C100B105308830012
:1001F000D20E520E090020308B13BE00BF01A001A9
:100200008B178B1508005630D400D5000800EA3053
:100210008500831285018316FE308500043081003D
:1002200001308C00203096008312CA01C701CB0137
:100230002F220321FB209001C0308E00FF308F0061
:100240008C0110140C1081018B010B17FB20CB1BB0
:100250006C224E0803103F1B4E0D043C03183B2933
:100260008F30CB05C71F3929FB2044179430C500B8
:100270008922CA01C7016400013085008501051D7E
:10028000BC23540855020319512954088B138400C8
:1002900000088B17D40A0A23803903193B29D40399
:1002A0003B2903212008031D58293F1C2729262903
:1002B0001F30200203187629A0302102031C762962
:1002C000D1302102031876293C303E02031C7629E6
:1002D0008B138B110B108B17AD21031D7629223048
:1002E0008B13BE00BF013F178B1727293E303E02FC
:1002F0000319BF173F18BF1748302002031C8D2970
:100300005930200203188D2910302102031C8D2939
:100310001E30210203188D29DD21BF1F2729262920
:10032000400884000008C8000E304802031CAB29B6
:100330001E3048020318AB29C00A40088400000898
:10034000C8003D3CC20DC60AC00A49084602031C4B
:10035000902903150800031108003F14C60120303E
:10036000C000C2012230C0000630C9009021031D28
:1003700008004208C300C2010D30C90090210330BB
:100380004202031D08003B30430298300319D22972
:10039000263043020318AB2930304B05031DD52905
:1003A00043089620C500C40189222F221030CB07B4
:1003B000CB1EA929CF30CB05A9291F30C000C80109
:1003C000C101C201C601CF0134224608031DF02934
:1003D000490803190C2A3E034002031DE4292F2A71
:1003E000093046020318FD2943182F2A4908031033
:1003F000031D0314C20CCF070C2A411C032A193019
:10040000420203190B2A4F080139490603192F2A02
:100410003422491C2F2AC60AC60A0B304602031C86
:10042000E4294208411CC4004118C500C10AC11C8E
:100430002A2A4408BF39943C031D2F2AFB20450873
:10044000031D242ACB17272A1320C5008922C501A2
:10045000C10108003E034002031DE1292F2A8B132E
:10046000CD01CE018B1708004808031D572A3E0313
:10047000400203195D2AC00A20304002031D432AAE
:100480000330C800572A0130C8002030C01C2A3071
:10049000C90040088B13840000088B17C30049086B
:1004A0004302031C572AC80A1830C9074F2AC80339
:1004B00001304005C900C30108000130C900C30074
:1004C0000800DF3045029420C5004A0845020319A0
:1004D0006A2AC216421708000F304B050319852AF5
:1004E000C2010130C1004B08410503197E2ACB0629
:1004F0004208BD20C500D430C400892A0310C10DB4
:10050000C20A04304202031D732ACB13CA01CB0175
:100510000800C2010130C1004208BD204502031D90
:10052000942A421742169C2A0310C10DC20A0430B5
:100530004202031D8C2AC101DA3045020319A82AA0
:10054000FF304505DF3C0319612245080319F22AF3
:1005500090304502031CAF2A7F30C505C2175830C2
:10056000450203194217441FC12A4A0845020319CC
:10057000CA01F030C705421EF52A4109CB05CA0160
:10058000E42A1430C21AFD224108421ACB044A0858
:1005900045020319CF2AC701421FC717D82A421B99
:1005A000C701073047020F390319D82AC70AF22AB0
:1005B0004508CA00C21FDE2AE030FD224508FD22A0
:1005C000421AF22AC71BF22AC21FE82AE030FD2293
:1005D000F030FD224508FD22C21EF22AF030FD2235
:1005E0001430FD222F22C5010800C71FF22AE42A79
:1005F000D100FD22F030FD2251088B13D2005508A6
:10060000603C0319082B5508840052088000D50A65
:100610008B170800D1006400051E0B2B04305823F3
:10062000112B051E0B2B051DFF34CF010830C60012
:1006300000303523051E342B00001E2B5108CF0639
:100640003523051E342BD10CC60B1E2B00004F0981
:100650003523051E342B2C2B2D2BFF303523043056
:100660005823322B00000034FE340139031DFE30C4
:100670000319FA3083168500831285018316402BF7
:10068000412B422B00000508EE39850083128501BD
:100690008316043058234C2B00000508EE3910381F
:1006A0008500522BFE30850083120000572B080076
:1006B000FF3E031D582B0800D0016400051E5D2B72
:1006C0000519AA340830C600CF0104305823682B1E
:1006D0000000A523051EBB340310D00CD004CF06A8
:1006E000C60B692B0000A523051ECC34CF06782B42
:1006F000792B0000A523051EDD34003A0319CF0134
:100700000319DD348316FA30850083128501882BA6
:10071000892B00008316EA30850083128501831639
:1007200004305823932B0000FA3085008312850192
:1007300083169A2B9B2B9C2BFE3085008312CF1F98
:10074000FF3401305823A42B0034A62BA72B000024
:100750008316EE30850083128501831604305823FA
:10076000B12B0000FE308500831202305823B82BD5
:1007700000000519803400345C23003E0319C52BAA
:10078000AA3C03190800AA3E0800ED3050020319E4
:10079000EA2BF03050020319EA2BF2305002031911
:1007A000DE2BF33050020319EA2BEE30500203190E
:1007B000F22BFF3050020319E42BF02BFA300A23FE
:1007C000AB300A238330F32BFA300A23051EE62BC5
:1007D000AA30F32BFA300A236400051AEC2B5C23B1
:0807E000FA30F32BEE300A2B76
:084000000000010001000800AE
:02400E004C3F25
:00000001FF
