:020000040000FA
:100000008316FF2390000529D20003088312D30032
:100010003F18EC28BF18D028BF19CA28851EEC2825
:10002000BF15CC01CA2882070034003400340034E4
:100030000E34043400340034003458342234903404
:1000400003341E341B341D340034063421340A3486
:10005000053426342334243411340D341A34DE3478
:10006000A03416341C34153432342C342A3434344D
:100070002E3425342B342D340034763400341434AB
:1000800000340C34003498340034123459340034C1
:100090000034003479347B34293466345A340734DC
:1000A000BA3478345D340034003400340034003421
:1000B000003400349D340034EB340034EC34F53437
:1000C000FD340034B8340034F23400340B34F134ED
:1000D0008334C834FA340034F43400340034DA346D
:1000E000013400340034003400340934493400341D
:1000F000D03446344B3444344A34543400345234CB
:100100004E3445344C344D3400345B344134003487
:1001100055343E3442344334313435343A34333454
:1001200036343D343B343C34820734341B340034A1
:100130001A3444342D3415344D348207B834003425
:10014000DE34003400340034003400340034003431
:10015000003400340034003400340034DA34003425
:1001600001340034BA34003483340034F434FD34C0
:10017000F534DA34EB34FA34F23482071234593479
:1001800014341134CC0A05304C0203193F15EC2805
:10019000BF01EC28851AC2283F1DC828BF14810161
:1001A0003E303E020319EC280130851E00303E0629
:1001B00001390319E9283E08203C031DE3280E30CD
:1001C0000102031CEC283E08840001088000BE0ADE
:1001D000EC280B1DEE283F1481010B11CD0A0319E9
:1001E000CE0AC0308E008F030C1053088300D20E4D
:1001F000520E090020308B13BE00BF01A0018B17E7
:1002000008005630D400D5000800EA30850083127B
:1002100085018316FE3085000430810001308C009A
:100220008312CA01C701CB0127220121FA209001C4
:10023000C0308E00FF308F008C0110140C10810133
:100240008B010B17FA20CB1B64224E0803103F1BB7
:100250004E0D043C031837298F30CB05C71F3529B5
:10026000FA2044179430C5008122CA01C7016400F6
:10027000013085008501051EB42354085502031979
:100280004D2954088B13840000088B17D40A0223CD
:10029000803903193729D403372901212008031D88
:1002A00054293F1C232922291F30200203186E29BC
:1002B000A0302102031C6E29D130210203186E29BF
:1002C0003C303E02031C6E29A521031D6E292230FD
:1002D0008B13BE00BF013F178B1723293E303E0210
:1002E0000319BF173F18BF1748302002031C852988
:1002F000593020020318852910302102031C85295A
:100300001E30210203188529D521BF1F2329222948
:10031000400884000008C8000E304802031CA329CE
:100320001E3048020318A329C00A400884000008B0
:10033000C8003D3CC20DC60AC00A49084602031C5B
:10034000882903150800031108003F14C601203056
:10035000C000C2012230C0000630C9008821031D40
:1003600008004208C300C2010D30C90088210330D3
:100370004202031D08003B30430298300319CA298A
:100380001F3043020318A32930304B05031DCD292C
:1003900043089D20C500C401812227221030CB07CD
:1003A000CB1EA129CF30CB05A1291F30C000C80129
:1003B000C101C201C601CF012C224608031DE82954
:1003C00049080319042A3E034002031DDC29272A99
:1003D000093046020318F5294318272A4908031053
:1003E000031D0314C20CCF07042A411CFB2919303A
:1003F00042020319032A4F08013949060319272A23
:100400002C22491C272AC60AC60A0B304602031CA6
:10041000DC294208411CC4004118C500C10AC11CA6
:10042000222A4408BF39943C031D272AFA20450894
:10043000031D1C2ACB171F2A1320C5008122C501CA
:10044000C10108003E034002031DD929272A8B134E
:10045000CD01CE018B1708004808031D4F2A3E032B
:1004600040020319552AC00A20304002031D3B2ACE
:100470000330C8004F2A0130C8002030C01C2A3089
:10048000C90040088B13840000088B17C30049087B
:100490004302031C4F2AC80A1830C907472AC80359
:1004A00001304005C900C30108000130C900C30084
:1004B0000800D83045029420C5004A0845020319B7
:1004C000622AC216421708000F304B0503197D2A15
:1004D000C2010130C1004B0841050319762ACB0641
:1004E0004208BD20C500D430C400812A0310C10DCC
:1004F000C20A04304202031D6B2ACB13CA01CB018E
:100500000800C2010130C1004208BD204502031DA0
:100510008C2A42174216942A0310C10DC20A0430D5
:100520004202031D842AC101DA3045020319A02AC0
:10053000F8304505D83C0319592245080319EA2A21
:1005400090304502031CA72A7F30C505C2175830DA
:10055000450203194217441FB92A4A0845020319E4
:10056000CA01F030C705421EED2A4109CB05CA0178
:10057000DC2A1430C21AF5224108421ACB044A0878
:1005800045020319C72AC701421FC717D02A421BB9
:10059000C701073047020F390319D02AC70AEA2AD0
:1005A0004508CA00C21FD62AE030F5224508F522C8
:1005B000421AEA2AC71BEA2AC21FE02AE030F522C3
:1005C000F030F5224508F522C21EEA2AF030F52265
:1005D0001430F5222722C5010800C71FEA2ADC2AA9
:1005E000D100F522F030F52251088B13D2005508C6
:1005F000603C0319002B5508840052088000D50A7E
:100600008B170800D1006400051E032B0430502313
:10061000092B051E032B051DFF34CF010830C60032
:1006200000302D23051E2C2B0000162B5108CF0661
:100630002D23051E2C2BD10CC60B162B00004F09A9
:100640002D23051E2C2B242B252BFF302D2304308E
:1006500050232A2B00000034FE340139031DFE30E4
:100660000319FA3083168500831285018316382B0F
:10067000392B3A2B00000508EE39850083128501DD
:10068000831604305023442B00000508EE3910383F
:1006900085004A2BFE308500831200004F2B080096
:1006A000FF3E031D502B0800D0016400051E552B92
:1006B0000519AA340830C600CF0104305023602B3E
:1006C00000009D23051EBB340310D00CD004CF06C0
:1006D000C60B612B00009D23051ECC34CF06702B6A
:1006E000712B00009D23051EDD34003A0319CF0154
:1006F0000319DD348316FA30850083128501802BBF
:10070000812B00008316EA30850083128501831651
:10071000043050238B2B0000FA30850083128501B2
:100720008316922B932B942BFE3085008312CF1FC0
:10073000FF34013050239C2B00349E2B9F2B000054
:100740008316EE3085008312850183160430502312
:10075000A92B0000FE308500831202305023B02BFD
:1007600000000519803400345423003E0319BD2BCA
:10077000AA3C03190800AA3E0800ED3050020319F4
:10078000E22BF03050020319E22BF2305002031931
:10079000D62BF33050020319E22BEE30500203192E
:1007A000EA2BFF3050020319DC2BE82BFA3002232E
:1007B000AB3002238330EB2BFA300223051EDE2BF5
:1007C000AA30EB2BFA3002236400051AE42B5423E1
:0807D000FA30EB2BEE30022B96
:084000000000010001000100B5
:02400E004C3F25
:00000001FF
